{"abi":[{"type":"constructor","inputs":[{"name":"_challenger","type":"address","internalType":"address"},{"name":"_defender","type":"address","internalType":"address"},{"name":"_MAT","type":"address","internalType":"contract MultiAttackToken"},{"name":"_MAN","type":"address","internalType":"contract MultiAttackNFT"}],"stateMutability":"nonpayable"},{"type":"function","name":"Betting","inputs":[{"name":"bettingAmount","type":"uint256","internalType":"uint256"},{"name":"manaPointRate","type":"uint256","internalType":"uint256"},{"name":"healthPointRate","type":"uint256","internalType":"uint256"}],"outputs":[],"stateMutability":"nonpayable"},{"type":"function","name":"ExplosiveShot","inputs":[],"outputs":[],"stateMutability":"nonpayable"},{"type":"function","name":"LightningBolt","inputs":[],"outputs":[],"stateMutability":"nonpayable"},{"type":"function","name":"ShieldBash","inputs":[],"outputs":[],"stateMutability":"nonpayable"},{"type":"function","name":"ThornArmor","inputs":[],"outputs":[],"stateMutability":"nonpayable"},{"type":"function","name":"berserkSlash","inputs":[],"outputs":[],"stateMutability":"nonpayable"},{"type":"function","name":"declareVictory","inputs":[],"outputs":[],"stateMutability":"nonpayable"},{"type":"function","name":"delegationRole","inputs":[{"name":"_to","type":"address","internalType":"address"}],"outputs":[],"stateMutability":"nonpayable"},{"type":"function","name":"fireBall","inputs":[],"outputs":[],"stateMutability":"nonpayable"},{"type":"function","name":"gamePhase","inputs":[],"outputs":[{"name":"","type":"uint8","internalType":"enum IMultiAttack.GamePhase"}],"stateMutability":"view"},{"type":"function","name":"heal","inputs":[],"outputs":[],"stateMutability":"nonpayable"},{"type":"function","name":"healingTouch","inputs":[],"outputs":[],"stateMutability":"nonpayable"},{"type":"function","name":"multiShot","inputs":[],"outputs":[],"stateMutability":"nonpayable"},{"type":"function","name":"multicall","inputs":[{"name":"data","type":"bytes[]","internalType":"bytes[]"}],"outputs":[{"name":"results","type":"bytes[]","internalType":"bytes[]"}],"stateMutability":"nonpayable"},{"type":"function","name":"naturesWrath","inputs":[],"outputs":[],"stateMutability":"nonpayable"},{"type":"function","name":"piercingArrow","inputs":[],"outputs":[],"stateMutability":"nonpayable"},{"type":"function","name":"playerAddr","inputs":[{"name":"","type":"uint8","internalType":"enum IMultiAttack.Role"}],"outputs":[{"name":"","type":"address","internalType":"address"}],"stateMutability":"view"},{"type":"function","name":"players","inputs":[{"name":"","type":"address","internalType":"address"}],"outputs":[{"name":"role","type":"uint8","internalType":"enum IMultiAttack.Role"},{"name":"class","type":"uint8","internalType":"enum IMultiAttack.WarClass"},{"name":"status","type":"uint8","internalType":"enum IMultiAttack.UserStatus"},{"name":"HP","type":"uint256","internalType":"uint256"},{"name":"MP","type":"uint256","internalType":"uint256"},{"name":"userBet","type":"uint256","internalType":"uint256"}],"stateMutability":"view"},{"type":"function","name":"selectClass","inputs":[{"name":"class","type":"uint8","internalType":"enum IMultiAttack.WarClass"}],"outputs":[],"stateMutability":"nonpayable"},{"type":"function","name":"setGame","inputs":[],"outputs":[],"stateMutability":"nonpayable"},{"type":"function","name":"whirlWind","inputs":[],"outputs":[],"stateMutability":"nonpayable"},{"type":"function","name":"winNFTAndTakeWarToken","inputs":[],"outputs":[],"stateMutability":"nonpayable"},{"type":"error","name":"AddressEmptyCode","inputs":[{"name":"target","type":"address","internalType":"address"}]},{"type":"error","name":"FailedInnerCall","inputs":[]},{"type":"error","name":"InvalidInput","inputs":[]}],"bytecode":{"object":"0x608060405234801561001057600080fd5b5060405161173d38038061173d83398101604081905261002f91610120565b600080546001600160a01b0319908116331782556001600160a01b03958616808352600160208181526040808620805462ff00ff199081169091557fac33ff75c19e70fe83507db0d683fd3465c996598dc972688b7ace676c89077b80548716909517909455978916808652978520805490931682179092558352600290527fe90b7bceb6e7df5418fb78d8ee546e97c83a08bbccc01a0644d599ccd2a7c2e08054821690951790945560038054851693861693909317909255600480549093169316929092179055805460ff60a01b1916905561017f565b6001600160a01b038116811461011d57600080fd5b50565b6000806000806080858703121561013657600080fd5b845161014181610108565b602086015190945061015281610108565b604086015190935061016381610108565b606086015190925061017481610108565b939692955090935050565b6115af8061018e6000396000f3fe608060405234801561001057600080fd5b50600436106101425760003560e01c806383163fd0116100b8578063b9a0bbbf1161007c578063b9a0bbbf14610164578063bdd2c7641461016c578063d24c0ab21461016c578063da79cb1f14610164578063e248aa0414610174578063e2eb41ff1461023d57600080fd5b806383163fd014610174578063935e2ac71461020a5780639d11f6ee1461015c5780639d8a06af146101a6578063ac9650d81461021d57600080fd5b8063369ebd5d1161010a578063369ebd5d146101745780633951be871461017c57806342307bdc146101a65780635564a08e146101ae5780636879d4d3146101b657806372448e48146101c957600080fd5b806302bc13be146101475780630434fe0b1461015c5780630f743fbe1461016457806318bb22dc1461016c578063321639db1461015c575b600080fd5b61015a610155366004611180565b61029c565b005b61015a610684565b61015a61075d565b61015a610837565b61015a610910565b60005461019090600160a01b900460ff1681565b60405161019d91906111d2565b60405180910390f35b61015a6109e8565b61015a610a54565b61015a6101c43660046111e5565b610c3a565b6101f26101d736600461120e565b6002602052600090815260409020546001600160a01b031681565b6040516001600160a01b03909116815260200161019d565b61015a61021836600461122f565b610e2d565b61023061022b366004611250565b610f99565b60405161019d91906112eb565b61028a61024b3660046111e5565b6001602081905260009182526040909120805491810154600282015460039092015460ff80851694610100810482169462010000909104909116929186565b60405161019d9695949392919061136b565b60008054600160a01b900460ff1660038111156102bb576102bb6111ac565b10156103005760405162461bcd60e51b815260206004820152600f60248201526e494e434f52524543545f504841534560881b60448201526064015b60405180910390fd5b6003600054600160a01b900460ff166003811115610320576103206111ac565b1061035f5760405162461bcd60e51b815260206004820152600f60248201526e494e434f52524543545f504841534560881b60448201526064016102f7565b66038d7ea4c680008310156103b65760405162461bcd60e51b815260206004820152601b60248201527f494e53554646494349454e545f42455454494e475f414d4f554e54000000000060448201526064016102f7565b6103c081836113d3565b60641461040f5760405162461bcd60e51b815260206004820152601e60248201527f48505f414e445f4d505f53554d4d4154494f4e5f53484f554c445f313030000060448201526064016102f7565b336000908152600160208190526040808320815160c08101909252805491929091839160ff90911690811115610447576104476111ac565b6001811115610458576104586111ac565b81528154602090910190610100900460ff16600381111561047b5761047b6111ac565b600381111561048c5761048c6111ac565b8152815460209091019062010000900460ff1660038111156104b0576104b06111ac565b60038111156104c1576104c16111ac565b8152600182015460208201526002820154604082015260039091015460609091015290506104f56509184e72a000856113e6565b9350838160a00181815161050991906113d3565b90525060646105188386611408565b61052291906113e6565b8160600181815161053391906113d3565b9052506060810151610545908561141f565b8160800181815161055691906113d3565b905250336000908152600160208190526040909120825181548493839160ff1916908381811115610589576105896111ac565b021790555060208201518154829061ff0019166101008360038111156105b1576105b16111ac565b021790555060408201518154829062ff00001916620100008360038111156105db576105db6111ac565b0217905550606082015160018201556080820151600282015560a090910151600391820155546000546040516323b872dd60e01b81523360048201526001600160a01b039182166024820152604481018790529116906323b872dd906064016020604051808303816000875af1158015610659573d6000803e3d6000fd5b505050506040513d601f19601f8201168201806040525081019061067d9190611432565b5050505050565b60008052600260205260008051602061153a833981519152546001600160a01b03163314806106d457506001600052600260205260008051602061155a833981519152546001600160a01b031633145b6106f05760405162461bcd60e51b81526004016102f790611454565b600233600090815260016020526040902054610100900460ff16600381111561071b5761071b6111ac565b1461075b5760405162461bcd60e51b815260206004820152601060248201526f594f555f4152455f4e4f545f4d41474560801b60448201526064016102f7565b565b60008052600260205260008051602061153a833981519152546001600160a01b03163314806107ad57506001600052600260205260008051602061155a833981519152546001600160a01b031633145b6107c95760405162461bcd60e51b81526004016102f790611454565b600033600090815260016020526040902054610100900460ff1660038111156107f4576107f46111ac565b1461075b5760405162461bcd60e51b81526020600482015260136024820152722ca7aaafa0a922afa727aa2faba0a92924a7a960691b60448201526064016102f7565b60008052600260205260008051602061153a833981519152546001600160a01b031633148061088757506001600052600260205260008051602061155a833981519152546001600160a01b031633145b6108a35760405162461bcd60e51b81526004016102f790611454565b600133600090815260016020526040902054610100900460ff1660038111156108ce576108ce6111ac565b1461075b5760405162461bcd60e51b81526020600482015260126024820152712ca7aaafa0a922afa727aa2fa0a921a422a960711b60448201526064016102f7565b60008052600260205260008051602061153a833981519152546001600160a01b031633148061096057506001600052600260205260008051602061155a833981519152546001600160a01b031633145b61097c5760405162461bcd60e51b81526004016102f790611454565b600333600090815260016020526040902054610100900460ff1660038111156109a7576109a76111ac565b1461075b5760405162461bcd60e51b81526020600482015260116024820152701653d557d0549157d393d517d114955251607a1b60448201526064016102f7565b60008052600260205260008051602061153a833981519152546001600160a01b0316331480610a3857506001600052600260205260008051602061155a833981519152546001600160a01b031633145b61075b5760405162461bcd60e51b81526004016102f790611454565b60008052600260205260008051602061153a833981519152546001600160a01b0316331480610aa457506001600052600260205260008051602061155a833981519152546001600160a01b031633145b610ac05760405162461bcd60e51b81526004016102f790611454565b60008054600160a01b900460ff166003811115610adf57610adf6111ac565b14610b1e5760405162461bcd60e51b815260206004820152600f60248201526e4e4f545f52454144595f504148534560881b60448201526064016102f7565b3360009081526001602052604090206003015466038d7ea4c680001115610b775760405162461bcd60e51b815260206004820152600d60248201526c14d15517d05195115497d09155609a1b60448201526064016102f7565b336000908152600160208190526040808320805462ff000019166201000090811790915560008051602061153a833981519152546001600160a01b031684529220549091900460ff166003811115610bd157610bd16111ac565b148015610c20575060008051602061155a833981519152546001600160a01b031660009081526001602081905260409091205462010000900460ff166003811115610c1e57610c1e6111ac565b145b1561075b576000805460ff60a01b1916600160a01b179055565b60008052600260205260008051602061153a833981519152546001600160a01b0316331480610c8a57506001600052600260205260008051602061155a833981519152546001600160a01b031633145b610ca65760405162461bcd60e51b81526004016102f790611454565b6003600054600160a01b900460ff166003811115610cc657610cc66111ac565b10610d055760405162461bcd60e51b815260206004820152600f60248201526e494e434f52524543545f504148534560881b60448201526064016102f7565b60008052600260205260008051602061153a833981519152546001600160a01b03163303610e1e578060026000805b81526020808201929092526040908101600090812080546001600160a01b0319166001600160a01b0395861617905533815260019283905281812093851681522082548154919260ff90911691839160ff19909116908381811115610d9b57610d9b6111ac565b02179055508154815460ff610100928390041691839161ff00191690836003811115610dc957610dc96111ac565b02179055508154815460ff62010000928390041691839162ff0000191690836003811115610df957610df96111ac565b0217905550600182810154908201556002808301549082015560039182015491015550565b80600260006001610d34565b50565b60008052600260205260008051602061153a833981519152546001600160a01b0316331480610e7d57506001600052600260205260008051602061155a833981519152546001600160a01b031633145b610e995760405162461bcd60e51b81526004016102f790611454565b6001600054600160a01b900460ff166003811115610eb957610eb96111ac565b14610f065760405162461bcd60e51b815260206004820152601960248201527f4e4f545f434c4153535f53454c454354494f4e5f50414853450000000000000060448201526064016102f7565b6000816003811115610f1a57610f1a6111ac565b14610f83576001816003811115610f3357610f336111ac565b14610f83576002816003811115610f4c57610f4c6111ac565b14610f83576003816003811115610f6557610f656111ac565b14610f835760405163b4fa3fb360e01b815260040160405180910390fd5b506000805460ff60a01b1916600160a11b179055565b6040805160008152602081019091526060908267ffffffffffffffff811115610fc457610fc461147c565b604051908082528060200260200182016040528015610ff757816020015b6060815260200190600190039081610fe25790505b50915060005b83811015611079576110543086868481811061101b5761101b611492565b905060200281019061102d91906114a8565b85604051602001611040939291906114f6565b604051602081830303815290604052611082565b83828151811061106657611066611492565b6020908102919091010152600101610ffd565b50505b92915050565b6060600080846001600160a01b03168460405161109f919061151d565b600060405180830381855af49150503d80600081146110da576040519150601f19603f3d011682016040523d82523d6000602084013e6110df565b606091505b50915091506110ef8583836110f8565b95945050505050565b60608261110d5761110882611157565b611150565b815115801561112457506001600160a01b0384163b155b1561114d57604051639996b31560e01b81526001600160a01b03851660048201526024016102f7565b50805b9392505050565b8051156111675780518082602001fd5b604051630a12f52160e11b815260040160405180910390fd5b60008060006060848603121561119557600080fd5b505081359360208301359350604090920135919050565b634e487b7160e01b600052602160045260246000fd5b60048110610e2a57610e2a6111ac565b602081016111df836111c2565b91905290565b6000602082840312156111f757600080fd5b81356001600160a01b038116811461115057600080fd5b60006020828403121561122057600080fd5b81356002811061115057600080fd5b60006020828403121561124157600080fd5b81356004811061115057600080fd5b6000806020838503121561126357600080fd5b823567ffffffffffffffff81111561127a57600080fd5b8301601f8101851361128b57600080fd5b803567ffffffffffffffff8111156112a257600080fd5b8560208260051b84010111156112b757600080fd5b6020919091019590945092505050565b60005b838110156112e25781810151838201526020016112ca565b50506000910152565b6000602082016020835280845180835260408501915060408160051b86010192506020860160005b8281101561135f57603f198786030184528151805180875261133c8160208901602085016112c7565b601f01601f19169590950160209081019550938401939190910190600101611313565b50929695505050505050565b60c081016002881061137f5761137f6111ac565b87825261138b876111c2565b86602083015261139a866111c2565b8560408301528460608301528360808301528260a0830152979650505050505050565b634e487b7160e01b600052601160045260246000fd5b8082018082111561107c5761107c6113bd565b60008261140357634e487b7160e01b600052601260045260246000fd5b500490565b808202811582820484141761107c5761107c6113bd565b8181038181111561107c5761107c6113bd565b60006020828403121561144457600080fd5b8151801515811461115057600080fd5b6020808252600e908201526d24a72b20a624a22fa9a2a72222a960911b604082015260600190565b634e487b7160e01b600052604160045260246000fd5b634e487b7160e01b600052603260045260246000fd5b6000808335601e198436030181126114bf57600080fd5b83018035915067ffffffffffffffff8211156114da57600080fd5b6020019150368190038213156114ef57600080fd5b9250929050565b8284823760008382016000815283516115138183602088016112c7565b0195945050505050565b6000825161152f8184602087016112c7565b919091019291505056feac33ff75c19e70fe83507db0d683fd3465c996598dc972688b7ace676c89077be90b7bceb6e7df5418fb78d8ee546e97c83a08bbccc01a0644d599ccd2a7c2e0a26469706673582212205be59fddc1df8a0f209f0013643134188351d412f410bedd3e5ae7804809d4e264736f6c634300081a0033","linkReferences":{}},"methodIdentifiers":{"Betting(uint256,uint256,uint256)":"02bc13be","ExplosiveShot()":"18bb22dc","LightningBolt()":"321639db","ShieldBash()":"b9a0bbbf","ThornArmor()":"369ebd5d","berserkSlash()":"0f743fbe","declareVictory()":"42307bdc","delegationRole(address)":"6879d4d3","fireBall()":"9d11f6ee","gamePhase()":"3951be87","heal()":"0434fe0b","healingTouch()":"83163fd0","multiShot()":"d24c0ab2","multicall(bytes[])":"ac9650d8","naturesWrath()":"e248aa04","piercingArrow()":"bdd2c764","playerAddr(uint8)":"72448e48","players(address)":"e2eb41ff","selectClass(uint8)":"935e2ac7","setGame()":"5564a08e","whirlWind()":"da79cb1f","winNFTAndTakeWarToken()":"9d8a06af"},"id":26}