{"abi":[{"type":"constructor","inputs":[],"stateMutability":"nonpayable"},{"type":"function","name":"allowance","inputs":[{"name":"owner","type":"address","internalType":"address"},{"name":"spender","type":"address","internalType":"address"}],"outputs":[{"name":"","type":"uint256","internalType":"uint256"}],"stateMutability":"view"},{"type":"function","name":"approve","inputs":[{"name":"spender","type":"address","internalType":"address"},{"name":"value","type":"uint256","internalType":"uint256"}],"outputs":[{"name":"","type":"bool","internalType":"bool"}],"stateMutability":"nonpayable"},{"type":"function","name":"balanceOf","inputs":[{"name":"account","type":"address","internalType":"address"}],"outputs":[{"name":"","type":"uint256","internalType":"uint256"}],"stateMutability":"view"},{"type":"function","name":"burn","inputs":[{"name":"value","type":"uint256","internalType":"uint256"}],"outputs":[],"stateMutability":"nonpayable"},{"type":"function","name":"decimals","inputs":[],"outputs":[{"name":"","type":"uint8","internalType":"uint8"}],"stateMutability":"view"},{"type":"function","name":"deleteInstance","inputs":[{"name":"instanceAddr","type":"address","internalType":"address"}],"outputs":[],"stateMutability":"nonpayable"},{"type":"function","name":"mint","inputs":[],"outputs":[],"stateMutability":"payable"},{"type":"function","name":"name","inputs":[],"outputs":[{"name":"","type":"string","internalType":"string"}],"stateMutability":"view"},{"type":"function","name":"owner","inputs":[],"outputs":[{"name":"","type":"address","internalType":"address"}],"stateMutability":"view"},{"type":"function","name":"registerInstance","inputs":[{"name":"instanceAddr","type":"address","internalType":"address"}],"outputs":[],"stateMutability":"nonpayable"},{"type":"function","name":"registerProxy","inputs":[{"name":"proxyAddr","type":"address","internalType":"address"}],"outputs":[],"stateMutability":"nonpayable"},{"type":"function","name":"renounceOwnership","inputs":[],"outputs":[],"stateMutability":"nonpayable"},{"type":"function","name":"symbol","inputs":[],"outputs":[{"name":"","type":"string","internalType":"string"}],"stateMutability":"view"},{"type":"function","name":"totalSupply","inputs":[],"outputs":[{"name":"","type":"uint256","internalType":"uint256"}],"stateMutability":"view"},{"type":"function","name":"transfer","inputs":[{"name":"to","type":"address","internalType":"address"},{"name":"value","type":"uint256","internalType":"uint256"}],"outputs":[{"name":"","type":"bool","internalType":"bool"}],"stateMutability":"nonpayable"},{"type":"function","name":"transferFrom","inputs":[{"name":"from","type":"address","internalType":"address"},{"name":"to","type":"address","internalType":"address"},{"name":"value","type":"uint256","internalType":"uint256"}],"outputs":[{"name":"","type":"bool","internalType":"bool"}],"stateMutability":"nonpayable"},{"type":"function","name":"transferOwnership","inputs":[{"name":"newOwner","type":"address","internalType":"address"}],"outputs":[],"stateMutability":"nonpayable"},{"type":"event","name":"Approval","inputs":[{"name":"owner","type":"address","indexed":true,"internalType":"address"},{"name":"spender","type":"address","indexed":true,"internalType":"address"},{"name":"value","type":"uint256","indexed":false,"internalType":"uint256"}],"anonymous":false},{"type":"event","name":"OwnershipTransferred","inputs":[{"name":"previousOwner","type":"address","indexed":true,"internalType":"address"},{"name":"newOwner","type":"address","indexed":true,"internalType":"address"}],"anonymous":false},{"type":"event","name":"Transfer","inputs":[{"name":"from","type":"address","indexed":true,"internalType":"address"},{"name":"to","type":"address","indexed":true,"internalType":"address"},{"name":"value","type":"uint256","indexed":false,"internalType":"uint256"}],"anonymous":false},{"type":"error","name":"ERC20InsufficientAllowance","inputs":[{"name":"spender","type":"address","internalType":"address"},{"name":"allowance","type":"uint256","internalType":"uint256"},{"name":"needed","type":"uint256","internalType":"uint256"}]},{"type":"error","name":"ERC20InsufficientBalance","inputs":[{"name":"sender","type":"address","internalType":"address"},{"name":"balance","type":"uint256","internalType":"uint256"},{"name":"needed","type":"uint256","internalType":"uint256"}]},{"type":"error","name":"ERC20InvalidApprover","inputs":[{"name":"approver","type":"address","internalType":"address"}]},{"type":"error","name":"ERC20InvalidReceiver","inputs":[{"name":"receiver","type":"address","internalType":"address"}]},{"type":"error","name":"ERC20InvalidSender","inputs":[{"name":"sender","type":"address","internalType":"address"}]},{"type":"error","name":"ERC20InvalidSpender","inputs":[{"name":"spender","type":"address","internalType":"address"}]},{"type":"error","name":"OwnableInvalidOwner","inputs":[{"name":"owner","type":"address","internalType":"address"}]},{"type":"error","name":"OwnableUnauthorizedAccount","inputs":[{"name":"account","type":"address","internalType":"address"}]}],"bytecode":{"object":"0x608060405234801561001057600080fd5b50336040518060400160405280601281526020017126bab63a349020ba3a30b1b5902a37b5b2b760711b8152506040518060400160405280600381526020016213505560ea1b815250816003908161006891906101a6565b50600461007582826101a6565b5050506001600160a01b0381166100a657604051631e4fbdf760e01b81526000600482015260240160405180910390fd5b6100af816100b5565b50610264565b600580546001600160a01b038381166001600160a01b0319831681179093556040519116919082907f8be0079c531659141344cd1fd0a4f28419497f9722a3daafe3b4186f6b6457e090600090a35050565b634e487b7160e01b600052604160045260246000fd5b600181811c9082168061013157607f821691505b60208210810361015157634e487b7160e01b600052602260045260246000fd5b50919050565b601f8211156101a157806000526020600020601f840160051c8101602085101561017e5750805b601f840160051c820191505b8181101561019e576000815560010161018a565b50505b505050565b81516001600160401b038111156101bf576101bf610107565b6101d3816101cd845461011d565b84610157565b6020601f82116001811461020757600083156101ef5750848201515b600019600385901b1c1916600184901b17845561019e565b600084815260208120601f198516915b828110156102375787850151825560209485019460019092019101610217565b50848210156102555786840151600019600387901b60f8161c191681555b50505050600190811b01905550565b610d8d806102736000396000f3fe6080604052600436106100fe5760003560e01c806370a082311161009557806395d89b411161006457806395d89b4114610296578063a9059cbb146102ab578063dd62ed3e146102cb578063e101f08714610311578063f2fde38b1461033157600080fd5b806370a0823114610203578063715018a614610239578063834af1531461024e5780638da5cb5b1461026e57600080fd5b80631d0793c4116100d15780631d0793c41461018757806323b872dd146101a7578063313ce567146101c757806342966c68146101e357600080fd5b806306fdde0314610103578063095ea7b31461012e5780631249c58b1461015e57806318160ddd14610168575b600080fd5b34801561010f57600080fd5b50610118610351565b6040516101259190610bc4565b60405180910390f35b34801561013a57600080fd5b5061014e610149366004610c2e565b6103e3565b6040519015158152602001610125565b6101666103fd565b005b34801561017457600080fd5b506002545b604051908152602001610125565b34801561019357600080fd5b506101666101a2366004610c58565b610465565b3480156101b357600080fd5b5061014e6101c2366004610c73565b610501565b3480156101d357600080fd5b5060405160128152602001610125565b3480156101ef57600080fd5b506101666101fe366004610cb0565b610541565b34801561020f57600080fd5b5061017961021e366004610c58565b6001600160a01b031660009081526020819052604090205490565b34801561024557600080fd5b50610166610637565b34801561025a57600080fd5b50610166610269366004610c58565b610649565b34801561027a57600080fd5b506005546040516001600160a01b039091168152602001610125565b3480156102a257600080fd5b506101186106e7565b3480156102b757600080fd5b5061014e6102c6366004610c2e565b6106f6565b3480156102d757600080fd5b506101796102e6366004610cc9565b6001600160a01b03918216600090815260016020908152604080832093909416825291909152205490565b34801561031d57600080fd5b5061016661032c366004610c58565b610704565b34801561033d57600080fd5b5061016661034c366004610c58565b61078e565b60606003805461036090610cfc565b80601f016020809104026020016040519081016040528092919081815260200182805461038c90610cfc565b80156103d95780601f106103ae576101008083540402835291602001916103d9565b820191906000526020600020905b8154815290600101906020018083116103bc57829003601f168201915b5050505050905090565b6000336103f18185856107cc565b60019150505b92915050565b66038d7ea4c680003410156104595760405162461bcd60e51b815260206004820152601d60248201527f494e53554646494349454e545f414d4f554e545f4445504f534954454400000060448201526064015b60405180910390fd5b61046333346107de565b565b3360009081526007602052604090205460ff1661048157600080fd5b6001600160a01b03811660009081526006602052604090205460ff166104e05760405162461bcd60e51b81526020600482015260146024820152734e4f4e5f4558495354494e475f4144445245535360601b6044820152606401610450565b6001600160a01b03166000908152600660205260409020805460ff19169055565b3360009081526006602052604081205460ff161561052c57610524848484610814565b50600161053a565b610537848484610873565b90505b9392505050565b66038d7ea4c680008110156105915760405162461bcd60e51b81526020600482015260166024820152751513d2d15397d05353d5539517d513d3d7d4d350531360521b6044820152606401610450565b61059b3382610897565b604051600090339083908381818185875af1925050503d80600081146105dd576040519150601f19603f3d011682016040523d82523d6000602084013e6105e2565b606091505b50509050806106335760405162461bcd60e51b815260206004820152601960248201527f544f4b454e5f4554485f45584348414e47455f4641494c4544000000000000006044820152606401610450565b5050565b61063f6108cd565b61046360006108fa565b3360009081526007602052604090205460ff1661066557600080fd5b6001600160a01b03811660009081526006602052604090205460ff16156106c35760405162461bcd60e51b81526020600482015260126024820152711053149150511657d49151d254d51154915160721b6044820152606401610450565b6001600160a01b03166000908152600660205260409020805460ff19166001179055565b60606004805461036090610cfc565b6000336103f1818585610814565b61070c6108cd565b6001600160a01b03811660009081526007602052604090205460ff161561076a5760405162461bcd60e51b81526020600482015260126024820152711053149150511657d49151d254d51154915160721b6044820152606401610450565b6001600160a01b03166000908152600760205260409020805460ff19166001179055565b6107966108cd565b6001600160a01b0381166107c057604051631e4fbdf760e01b815260006004820152602401610450565b6107c9816108fa565b50565b6107d9838383600161094c565b505050565b6001600160a01b0382166108085760405163ec442f0560e01b815260006004820152602401610450565b61063360008383610a22565b6001600160a01b03831661083e57604051634b637e8f60e11b815260006004820152602401610450565b6001600160a01b0382166108685760405163ec442f0560e01b815260006004820152602401610450565b6107d9838383610a22565b600033610881858285610b4c565b61088c858585610814565b506001949350505050565b6001600160a01b0382166108c157604051634b637e8f60e11b815260006004820152602401610450565b61063382600083610a22565b6005546001600160a01b031633146104635760405163118cdaa760e01b8152336004820152602401610450565b600580546001600160a01b038381166001600160a01b0319831681179093556040519116919082907f8be0079c531659141344cd1fd0a4f28419497f9722a3daafe3b4186f6b6457e090600090a35050565b6001600160a01b0384166109765760405163e602df0560e01b815260006004820152602401610450565b6001600160a01b0383166109a057604051634a1406b160e11b815260006004820152602401610450565b6001600160a01b0380851660009081526001602090815260408083209387168352929052208290558015610a1c57826001600160a01b0316846001600160a01b03167f8c5be1e5ebec7d5bd14f71427d1e84f3dd0314c0f7b2291e5b200ac8c7c3b92584604051610a1391815260200190565b60405180910390a35b50505050565b6001600160a01b038316610a4d578060026000828254610a429190610d36565b90915550610abf9050565b6001600160a01b03831660009081526020819052604090205481811015610aa05760405163391434e360e21b81526001600160a01b03851660048201526024810182905260448101839052606401610450565b6001600160a01b03841660009081526020819052604090209082900390555b6001600160a01b038216610adb57600280548290039055610afa565b6001600160a01b03821660009081526020819052604090208054820190555b816001600160a01b0316836001600160a01b03167fddf252ad1be2c89b69c2b068fc378daa952ba7f163c4a11628f55a4df523b3ef83604051610b3f91815260200190565b60405180910390a3505050565b6001600160a01b038381166000908152600160209081526040808320938616835292905220546000198114610a1c5781811015610bb557604051637dc7a0d960e11b81526001600160a01b03841660048201526024810182905260448101839052606401610450565b610a1c8484848403600061094c565b602081526000825180602084015260005b81811015610bf25760208186018101516040868401015201610bd5565b506000604082850101526040601f19601f83011684010191505092915050565b80356001600160a01b0381168114610c2957600080fd5b919050565b60008060408385031215610c4157600080fd5b610c4a83610c12565b946020939093013593505050565b600060208284031215610c6a57600080fd5b61053a82610c12565b600080600060608486031215610c8857600080fd5b610c9184610c12565b9250610c9f60208501610c12565b929592945050506040919091013590565b600060208284031215610cc257600080fd5b5035919050565b60008060408385031215610cdc57600080fd5b610ce583610c12565b9150610cf360208401610c12565b90509250929050565b600181811c90821680610d1057607f821691505b602082108103610d3057634e487b7160e01b600052602260045260246000fd5b50919050565b808201808211156103f757634e487b7160e01b600052601160045260246000fdfea26469706673582212206dc5e42b80b61d5cacc69d87941f7ae28be8848b5e516cedd4dfc758911cec7564736f6c634300081a0033","linkReferences":{}},"methodIdentifiers":{"allowance(address,address)":"dd62ed3e","approve(address,uint256)":"095ea7b3","balanceOf(address)":"70a08231","burn(uint256)":"42966c68","decimals()":"313ce567","deleteInstance(address)":"1d0793c4","mint()":"1249c58b","name()":"06fdde03","owner()":"8da5cb5b","registerInstance(address)":"834af153","registerProxy(address)":"e101f087","renounceOwnership()":"715018a6","symbol()":"95d89b41","totalSupply()":"18160ddd","transfer(address,uint256)":"a9059cbb","transferFrom(address,address,uint256)":"23b872dd","transferOwnership(address)":"f2fde38b"},"id":28}