{"abi":[{"type":"constructor","inputs":[],"stateMutability":"nonpayable"},{"type":"function","name":"UPGRADE_INTERFACE_VERSION","inputs":[],"outputs":[{"name":"","type":"string","internalType":"string"}],"stateMutability":"view"},{"type":"function","name":"class","inputs":[],"outputs":[{"name":"","type":"uint8","internalType":"enum IMultiAttack.Class"}],"stateMutability":"view"},{"type":"function","name":"gamePhase","inputs":[],"outputs":[{"name":"","type":"uint8","internalType":"enum IMultiAttack.GamePhase"}],"stateMutability":"view"},{"type":"function","name":"initialize","inputs":[{"name":"_MAT","type":"address","internalType":"address"},{"name":"_MAN","type":"address","internalType":"address"}],"outputs":[],"stateMutability":"nonpayable"},{"type":"function","name":"owner","inputs":[],"outputs":[{"name":"","type":"address","internalType":"address"}],"stateMutability":"view"},{"type":"function","name":"pause","inputs":[],"outputs":[],"stateMutability":"nonpayable"},{"type":"function","name":"paused","inputs":[],"outputs":[{"name":"","type":"bool","internalType":"bool"}],"stateMutability":"view"},{"type":"function","name":"proxiableUUID","inputs":[],"outputs":[{"name":"","type":"bytes32","internalType":"bytes32"}],"stateMutability":"view"},{"type":"function","name":"renounceOwnership","inputs":[],"outputs":[],"stateMutability":"nonpayable"},{"type":"function","name":"transferOwnership","inputs":[{"name":"newOwner","type":"address","internalType":"address"}],"outputs":[],"stateMutability":"nonpayable"},{"type":"function","name":"unpause","inputs":[],"outputs":[],"stateMutability":"nonpayable"},{"type":"function","name":"upgradeToAndCall","inputs":[{"name":"newImplementation","type":"address","internalType":"address"},{"name":"data","type":"bytes","internalType":"bytes"}],"outputs":[],"stateMutability":"payable"},{"type":"event","name":"Initialized","inputs":[{"name":"version","type":"uint64","indexed":false,"internalType":"uint64"}],"anonymous":false},{"type":"event","name":"OwnershipTransferred","inputs":[{"name":"previousOwner","type":"address","indexed":true,"internalType":"address"},{"name":"newOwner","type":"address","indexed":true,"internalType":"address"}],"anonymous":false},{"type":"event","name":"Paused","inputs":[{"name":"account","type":"address","indexed":false,"internalType":"address"}],"anonymous":false},{"type":"event","name":"Unpaused","inputs":[{"name":"account","type":"address","indexed":false,"internalType":"address"}],"anonymous":false},{"type":"event","name":"Upgraded","inputs":[{"name":"implementation","type":"address","indexed":true,"internalType":"address"}],"anonymous":false},{"type":"error","name":"AddressEmptyCode","inputs":[{"name":"target","type":"address","internalType":"address"}]},{"type":"error","name":"ERC1967InvalidImplementation","inputs":[{"name":"implementation","type":"address","internalType":"address"}]},{"type":"error","name":"ERC1967NonPayable","inputs":[]},{"type":"error","name":"EnforcedPause","inputs":[]},{"type":"error","name":"ExpectedPause","inputs":[]},{"type":"error","name":"FailedInnerCall","inputs":[]},{"type":"error","name":"InvalidInitialization","inputs":[]},{"type":"error","name":"NotInitializing","inputs":[]},{"type":"error","name":"OwnableInvalidOwner","inputs":[{"name":"owner","type":"address","internalType":"address"}]},{"type":"error","name":"OwnableUnauthorizedAccount","inputs":[{"name":"account","type":"address","internalType":"address"}]},{"type":"error","name":"UUPSUnauthorizedCallContext","inputs":[]},{"type":"error","name":"UUPSUnsupportedProxiableUUID","inputs":[{"name":"slot","type":"bytes32","internalType":"bytes32"}]}],"bytecode":{"object":"0x60a06040523060805234801561001457600080fd5b5061001d610022565b6100d4565b7ff0c57e16840df040f15088dc2f81fe391c3923bec73e23a9662efc9c229c6a00805468010000000000000000900460ff16156100725760405163f92ee8a960e01b815260040160405180910390fd5b80546001600160401b03908116146100d15780546001600160401b0319166001600160401b0390811782556040519081527fc7f505b2f371ae2175ee4913f4499e1f2633a7b5936321eed1cdaeb6115181d29060200160405180910390a15b50565b608051610d1a6100fd60003960008181610578015281816105a101526106e70152610d1a6000f3fe6080604052600436106100a75760003560e01c8063715018a611610064578063715018a6146101805780638456cb59146101955780638da5cb5b146101aa578063ad3cb1cc146101f1578063bff852fa1461022f578063f2fde38b1461025d57600080fd5b80633951be87146100ac5780633f4ba83a146100e3578063485cc955146100fa5780634f1ef2861461011a57806352d1902d1461012d5780635c975abb14610150575b600080fd5b3480156100b857600080fd5b506001546100cd90600160a81b900460ff1681565b6040516100da9190610aa0565b60405180910390f35b3480156100ef57600080fd5b506100f861027d565b005b34801561010657600080fd5b506100f8610115366004610ad6565b61028f565b6100f8610128366004610b1f565b6103e8565b34801561013957600080fd5b50610142610407565b6040519081526020016100da565b34801561015c57600080fd5b50600080516020610cc58339815191525460ff1660405190151581526020016100da565b34801561018c57600080fd5b506100f8610424565b3480156101a157600080fd5b506100f8610436565b3480156101b657600080fd5b507f9016d09d72d40fdae2fd8ceac6b6234c7706214fd39c1cd1e609a0528c199300546040516001600160a01b0390911681526020016100da565b3480156101fd57600080fd5b50610222604051806040016040528060058152602001640352e302e360dc1b81525081565b6040516100da9190610c0d565b34801561023b57600080fd5b5060015461025090600160a01b900460ff1681565b6040516100da9190610c40565b34801561026957600080fd5b506100f8610278366004610c54565b610446565b610285610489565b61028d6104e4565b565b7ff0c57e16840df040f15088dc2f81fe391c3923bec73e23a9662efc9c229c6a008054600160401b810460ff16159067ffffffffffffffff166000811580156102d55750825b905060008267ffffffffffffffff1660011480156102f25750303b155b905081158015610300575080155b1561031e5760405163f92ee8a960e01b815260040160405180910390fd5b845467ffffffffffffffff19166001178555831561034857845460ff60401b1916600160401b1785555b610350610544565b61035933610554565b610361610565565b600080546001600160a01b0319166001600160a01b038981169190911790915560018054600161ff0160a01b03191691881691909117905583156103df57845460ff60401b19168555604051600181527fc7f505b2f371ae2175ee4913f4499e1f2633a7b5936321eed1cdaeb6115181d29060200160405180910390a15b50505050505050565b6103f061056d565b6103f982610612565b610403828261061a565b5050565b60006104116106dc565b50600080516020610ca583398151915290565b61042c610489565b61028d6000610725565b61043e610489565b61028d610796565b61044e610489565b6001600160a01b03811661047d57604051631e4fbdf760e01b8152600060048201526024015b60405180910390fd5b61048681610725565b50565b336104bb7f9016d09d72d40fdae2fd8ceac6b6234c7706214fd39c1cd1e609a0528c199300546001600160a01b031690565b6001600160a01b03161461028d5760405163118cdaa760e01b8152336004820152602401610474565b6104ec6107df565b600080516020610cc5833981519152805460ff191681557f5db9ee0a495bf2e6ff9c91a7834c1ba4fdd244a5e8aa4e537bd38aeae4b073aa335b6040516001600160a01b03909116815260200160405180910390a150565b61054c61080f565b61028d610858565b61055c61080f565b61048681610879565b61028d61080f565b306001600160a01b037f00000000000000000000000000000000000000000000000000000000000000001614806105f457507f00000000000000000000000000000000000000000000000000000000000000006001600160a01b03166105e8600080516020610ca5833981519152546001600160a01b031690565b6001600160a01b031614155b1561028d5760405163703e46dd60e11b815260040160405180910390fd5b610486610489565b816001600160a01b03166352d1902d6040518163ffffffff1660e01b8152600401602060405180830381865afa925050508015610674575060408051601f3d908101601f1916820190925261067191810190610c6f565b60015b61069c57604051634c9c8ce360e01b81526001600160a01b0383166004820152602401610474565b600080516020610ca583398151915281146106cd57604051632a87526960e21b815260048101829052602401610474565b6106d78383610881565b505050565b306001600160a01b037f0000000000000000000000000000000000000000000000000000000000000000161461028d5760405163703e46dd60e11b815260040160405180910390fd5b7f9016d09d72d40fdae2fd8ceac6b6234c7706214fd39c1cd1e609a0528c19930080546001600160a01b031981166001600160a01b03848116918217845560405192169182907f8be0079c531659141344cd1fd0a4f28419497f9722a3daafe3b4186f6b6457e090600090a3505050565b61079e6108d7565b600080516020610cc5833981519152805460ff191660011781557f62e78cea01bee320cd4e420270b5ea74000d11b0c9f74754ebdbfc544b05a25833610526565b600080516020610cc58339815191525460ff1661028d57604051638dfc202b60e01b815260040160405180910390fd5b7ff0c57e16840df040f15088dc2f81fe391c3923bec73e23a9662efc9c229c6a0054600160401b900460ff1661028d57604051631afcd79f60e31b815260040160405180910390fd5b61086061080f565b600080516020610cc5833981519152805460ff19169055565b61044e61080f565b61088a82610908565b6040516001600160a01b038316907fbc7cd75a20ee27fd9adebab32041f755214dbc6bffa90cc0225b39da2e5c2d3b90600090a28051156108cf576106d7828261096d565b6104036109e3565b600080516020610cc58339815191525460ff161561028d5760405163d93c066560e01b815260040160405180910390fd5b806001600160a01b03163b60000361093e57604051634c9c8ce360e01b81526001600160a01b0382166004820152602401610474565b600080516020610ca583398151915280546001600160a01b0319166001600160a01b0392909216919091179055565b6060600080846001600160a01b03168460405161098a9190610c88565b600060405180830381855af49150503d80600081146109c5576040519150601f19603f3d011682016040523d82523d6000602084013e6109ca565b606091505b50915091506109da858383610a02565b95945050505050565b341561028d5760405163b398979f60e01b815260040160405180910390fd5b606082610a1757610a1282610a61565b610a5a565b8151158015610a2e57506001600160a01b0384163b155b15610a5757604051639996b31560e01b81526001600160a01b0385166004820152602401610474565b50805b9392505050565b805115610a715780518082602001fd5b604051630a12f52160e11b815260040160405180910390fd5b634e487b7160e01b600052602160045260246000fd5b6020810160058310610ab457610ab4610a8a565b91905290565b80356001600160a01b0381168114610ad157600080fd5b919050565b60008060408385031215610ae957600080fd5b610af283610aba565b9150610b0060208401610aba565b90509250929050565b634e487b7160e01b600052604160045260246000fd5b60008060408385031215610b3257600080fd5b610b3b83610aba565b9150602083013567ffffffffffffffff811115610b5757600080fd5b8301601f81018513610b6857600080fd5b803567ffffffffffffffff811115610b8257610b82610b09565b604051601f8201601f19908116603f0116810167ffffffffffffffff81118282101715610bb157610bb1610b09565b604052818152828201602001871015610bc957600080fd5b816020840160208301376000602083830101528093505050509250929050565b60005b83811015610c04578181015183820152602001610bec565b50506000910152565b6020815260008251806020840152610c2c816040850160208701610be9565b601f01601f19169190910160400192915050565b6020810160048310610ab457610ab4610a8a565b600060208284031215610c6657600080fd5b610a5a82610aba565b600060208284031215610c8157600080fd5b5051919050565b60008251610c9a818460208701610be9565b919091019291505056fe360894a13ba1a3210667c828492db98dca3e2076cc3735a920a3ca505d382bbccd5ed15c6e187e77e9aee88184c21f4f2182ab5827cb3b7e07fbedcd63f03300a2646970667358221220b85dd055cf9b985ffbffc949c233133dfcc6eb9913120733c6cb4b8e8064282864736f6c634300081a0033","linkReferences":{}},"methodIdentifiers":{"UPGRADE_INTERFACE_VERSION()":"ad3cb1cc","class()":"bff852fa","gamePhase()":"3951be87","initialize(address,address)":"485cc955","owner()":"8da5cb5b","pause()":"8456cb59","paused()":"5c975abb","proxiableUUID()":"52d1902d","renounceOwnership()":"715018a6","transferOwnership(address)":"f2fde38b","unpause()":"3f4ba83a","upgradeToAndCall(address,bytes)":"4f1ef286"},"id":28}