{"abi":[{"type":"constructor","inputs":[],"stateMutability":"nonpayable"},{"type":"function","name":"UPGRADE_INTERFACE_VERSION","inputs":[],"outputs":[{"name":"","type":"string","internalType":"string"}],"stateMutability":"view"},{"type":"function","name":"initialize","inputs":[{"name":"_MAT","type":"address","internalType":"address"},{"name":"_MAN","type":"address","internalType":"address"}],"outputs":[],"stateMutability":"nonpayable"},{"type":"function","name":"invite","inputs":[{"name":"_to","type":"address","internalType":"address"},{"name":"message","type":"string","internalType":"string"}],"outputs":[{"name":"newInstance","type":"address","internalType":"address"}],"stateMutability":"payable"},{"type":"function","name":"owner","inputs":[],"outputs":[{"name":"","type":"address","internalType":"address"}],"stateMutability":"view"},{"type":"function","name":"pause","inputs":[],"outputs":[],"stateMutability":"nonpayable"},{"type":"function","name":"paused","inputs":[],"outputs":[{"name":"","type":"bool","internalType":"bool"}],"stateMutability":"view"},{"type":"function","name":"proxiableUUID","inputs":[],"outputs":[{"name":"","type":"bytes32","internalType":"bytes32"}],"stateMutability":"view"},{"type":"function","name":"renounceOwnership","inputs":[],"outputs":[],"stateMutability":"nonpayable"},{"type":"function","name":"transferOwnership","inputs":[{"name":"newOwner","type":"address","internalType":"address"}],"outputs":[],"stateMutability":"nonpayable"},{"type":"function","name":"unpause","inputs":[],"outputs":[],"stateMutability":"nonpayable"},{"type":"function","name":"upgradeToAndCall","inputs":[{"name":"newImplementation","type":"address","internalType":"address"},{"name":"data","type":"bytes","internalType":"bytes"}],"outputs":[],"stateMutability":"payable"},{"type":"event","name":"Initialized","inputs":[{"name":"version","type":"uint64","indexed":false,"internalType":"uint64"}],"anonymous":false},{"type":"event","name":"OwnershipTransferred","inputs":[{"name":"previousOwner","type":"address","indexed":true,"internalType":"address"},{"name":"newOwner","type":"address","indexed":true,"internalType":"address"}],"anonymous":false},{"type":"event","name":"Paused","inputs":[{"name":"account","type":"address","indexed":false,"internalType":"address"}],"anonymous":false},{"type":"event","name":"Unpaused","inputs":[{"name":"account","type":"address","indexed":false,"internalType":"address"}],"anonymous":false},{"type":"event","name":"Upgraded","inputs":[{"name":"implementation","type":"address","indexed":true,"internalType":"address"}],"anonymous":false},{"type":"event","name":"createInstance","inputs":[{"name":"newInstance","type":"address","indexed":false,"internalType":"address"}],"anonymous":false},{"type":"error","name":"AddressEmptyCode","inputs":[{"name":"target","type":"address","internalType":"address"}]},{"type":"error","name":"ERC1967InvalidImplementation","inputs":[{"name":"implementation","type":"address","internalType":"address"}]},{"type":"error","name":"ERC1967NonPayable","inputs":[]},{"type":"error","name":"EnforcedPause","inputs":[]},{"type":"error","name":"ExpectedPause","inputs":[]},{"type":"error","name":"FailedInnerCall","inputs":[]},{"type":"error","name":"InvalidInitialization","inputs":[]},{"type":"error","name":"NotInitializing","inputs":[]},{"type":"error","name":"OwnableInvalidOwner","inputs":[{"name":"owner","type":"address","internalType":"address"}]},{"type":"error","name":"OwnableUnauthorizedAccount","inputs":[{"name":"account","type":"address","internalType":"address"}]},{"type":"error","name":"UUPSUnauthorizedCallContext","inputs":[]},{"type":"error","name":"UUPSUnsupportedProxiableUUID","inputs":[{"name":"slot","type":"bytes32","internalType":"bytes32"}]}],"bytecode":{"object":"0x60a06040523060805234801561001457600080fd5b5061001d610022565b6100d4565b7ff0c57e16840df040f15088dc2f81fe391c3923bec73e23a9662efc9c229c6a00805468010000000000000000900460ff16156100725760405163f92ee8a960e01b815260040160405180910390fd5b80546001600160401b03908116146100d15780546001600160401b0319166001600160401b0390811782556040519081527fc7f505b2f371ae2175ee4913f4499e1f2633a7b5936321eed1cdaeb6115181d29060200160405180910390a15b50565b6080516127476100fd600039600081816107e801528181610811015261095701526127476000f3fe60806040526004361061009c5760003560e01c8063715018a611610064578063715018a6146101435780638456cb59146101585780638da5cb5b1461016d578063a1a17e0d146101be578063ad3cb1cc146101d1578063f2fde38b1461020f57600080fd5b80633f4ba83a146100a1578063485cc955146100b85780634f1ef286146100d857806352d1902d146100eb5780635c975abb14610113575b600080fd5b3480156100ad57600080fd5b506100b661022f565b005b3480156100c457600080fd5b506100b66100d3366004610d23565b610241565b6100b66100e6366004610d6c565b610392565b3480156100f757600080fd5b506101006103b1565b6040519081526020015b60405180910390f35b34801561011f57600080fd5b506000805160206126f28339815191525460ff16604051901515815260200161010a565b34801561014f57600080fd5b506100b66103ce565b34801561016457600080fd5b506100b66103e0565b34801561017957600080fd5b507f9016d09d72d40fdae2fd8ceac6b6234c7706214fd39c1cd1e609a0528c199300546001600160a01b03165b6040516001600160a01b03909116815260200161010a565b6101a66101cc366004610e36565b6103f0565b3480156101dd57600080fd5b50610202604051806040016040528060058152602001640352e302e360dc1b81525081565b60405161010a9190610edf565b34801561021b57600080fd5b506100b661022a366004610f12565b6106bb565b6102376106f9565b61023f610754565b565b7ff0c57e16840df040f15088dc2f81fe391c3923bec73e23a9662efc9c229c6a008054600160401b810460ff16159067ffffffffffffffff166000811580156102875750825b905060008267ffffffffffffffff1660011480156102a45750303b155b9050811580156102b2575080155b156102d05760405163f92ee8a960e01b815260040160405180910390fd5b845467ffffffffffffffff1916600117855583156102fa57845460ff60401b1916600160401b1785555b6103026107b4565b61030b336107c4565b6103136107d5565b600080546001600160a01b03808a166001600160a01b0319928316179092556001805492891692909116919091179055831561038957845460ff60401b19168555604051600181527fc7f505b2f371ae2175ee4913f4499e1f2633a7b5936321eed1cdaeb6115181d29060200160405180910390a15b50505050505050565b61039a6107dd565b6103a382610882565b6103ad828261088a565b5050565b60006103bb61094c565b506000805160206126d283398151915290565b6103d66106f9565b61023f6000610995565b6103e86106f9565b61023f610a06565b600080546040516370a0823160e01b8152336004820152655af3107a4000916001600160a01b0316906370a0823190602401602060405180830381865afa15801561043f573d6000803e3d6000fd5b505050506040513d601f19601f820116820180604052508101906104639190610f2d565b10156104b65760405162461bcd60e51b815260206004820152601760248201527f494e53554646494349454e545f494e564954455f46454500000000000000000060448201526064015b60405180910390fd5b6000546040516323b872dd60e01b8152336004820152306024820152655af3107a400060448201526001600160a01b03909116906323b872dd906064016020604051808303816000875af1158015610512573d6000803e3d6000fd5b505050506040513d601f19601f820116820180604052508101906105369190610f46565b506000846001600160a01b031660018585604051602001610558929190610f68565b60408051601f198184030181529082905261057291610f78565b60006040518083038185875af1925050503d80600081146105af576040519150601f19603f3d011682016040523d82523d6000602084013e6105b4565b606091505b50509050806106055760405162461bcd60e51b815260206004820152601c60248201527f494e564954455f4641494c45445f42595f53454e445f4641494c45440000000060448201526064016104ad565b60008054600154604051339289926001600160a01b039182169291169061062b90610cfa565b6001600160a01b039485168152928416602084015290831660408301529091166060820152608001604051809103906000f08015801561066f573d6000803e3d6000fd5b506040516001600160a01b03821681529093508391507f7726f7767f62a2bd3fa49728a81ad740f983947be9afe5a424fdb2f101a36fa59060200160405180910390a150509392505050565b6106c36106f9565b6001600160a01b0381166106ed57604051631e4fbdf760e01b8152600060048201526024016104ad565b6106f681610995565b50565b3361072b7f9016d09d72d40fdae2fd8ceac6b6234c7706214fd39c1cd1e609a0528c199300546001600160a01b031690565b6001600160a01b03161461023f5760405163118cdaa760e01b81523360048201526024016104ad565b61075c610a4f565b6000805160206126f2833981519152805460ff191681557f5db9ee0a495bf2e6ff9c91a7834c1ba4fdd244a5e8aa4e537bd38aeae4b073aa335b6040516001600160a01b03909116815260200160405180910390a150565b6107bc610a7f565b61023f610ac8565b6107cc610a7f565b6106f681610ae9565b61023f610a7f565b306001600160a01b037f000000000000000000000000000000000000000000000000000000000000000016148061086457507f00000000000000000000000000000000000000000000000000000000000000006001600160a01b03166108586000805160206126d2833981519152546001600160a01b031690565b6001600160a01b031614155b1561023f5760405163703e46dd60e11b815260040160405180910390fd5b6106f66106f9565b816001600160a01b03166352d1902d6040518163ffffffff1660e01b8152600401602060405180830381865afa9250505080156108e4575060408051601f3d908101601f191682019092526108e191810190610f2d565b60015b61090c57604051634c9c8ce360e01b81526001600160a01b03831660048201526024016104ad565b6000805160206126d2833981519152811461093d57604051632a87526960e21b8152600481018290526024016104ad565b6109478383610af1565b505050565b306001600160a01b037f0000000000000000000000000000000000000000000000000000000000000000161461023f5760405163703e46dd60e11b815260040160405180910390fd5b7f9016d09d72d40fdae2fd8ceac6b6234c7706214fd39c1cd1e609a0528c19930080546001600160a01b031981166001600160a01b03848116918217845560405192169182907f8be0079c531659141344cd1fd0a4f28419497f9722a3daafe3b4186f6b6457e090600090a3505050565b610a0e610b47565b6000805160206126f2833981519152805460ff191660011781557f62e78cea01bee320cd4e420270b5ea74000d11b0c9f74754ebdbfc544b05a25833610796565b6000805160206126f28339815191525460ff1661023f57604051638dfc202b60e01b815260040160405180910390fd5b7ff0c57e16840df040f15088dc2f81fe391c3923bec73e23a9662efc9c229c6a0054600160401b900460ff1661023f57604051631afcd79f60e31b815260040160405180910390fd5b610ad0610a7f565b6000805160206126f2833981519152805460ff19169055565b6106c3610a7f565b610afa82610b78565b6040516001600160a01b038316907fbc7cd75a20ee27fd9adebab32041f755214dbc6bffa90cc0225b39da2e5c2d3b90600090a2805115610b3f576109478282610bdd565b6103ad610c53565b6000805160206126f28339815191525460ff161561023f5760405163d93c066560e01b815260040160405180910390fd5b806001600160a01b03163b600003610bae57604051634c9c8ce360e01b81526001600160a01b03821660048201526024016104ad565b6000805160206126d283398151915280546001600160a01b0319166001600160a01b0392909216919091179055565b6060600080846001600160a01b031684604051610bfa9190610f78565b600060405180830381855af49150503d8060008114610c35576040519150601f19603f3d011682016040523d82523d6000602084013e610c3a565b606091505b5091509150610c4a858383610c72565b95945050505050565b341561023f5760405163b398979f60e01b815260040160405180910390fd5b606082610c8757610c8282610cd1565b610cca565b8151158015610c9e57506001600160a01b0384163b155b15610cc757604051639996b31560e01b81526001600160a01b03851660048201526024016104ad565b50805b9392505050565b805115610ce15780518082602001fd5b604051630a12f52160e11b815260040160405180910390fd5b61173d80610f9583390190565b80356001600160a01b0381168114610d1e57600080fd5b919050565b60008060408385031215610d3657600080fd5b610d3f83610d07565b9150610d4d60208401610d07565b90509250929050565b634e487b7160e01b600052604160045260246000fd5b60008060408385031215610d7f57600080fd5b610d8883610d07565b9150602083013567ffffffffffffffff811115610da457600080fd5b8301601f81018513610db557600080fd5b803567ffffffffffffffff811115610dcf57610dcf610d56565b604051601f8201601f19908116603f0116810167ffffffffffffffff81118282101715610dfe57610dfe610d56565b604052818152828201602001871015610e1657600080fd5b816020840160208301376000602083830101528093505050509250929050565b600080600060408486031215610e4b57600080fd5b610e5484610d07565b9250602084013567ffffffffffffffff811115610e7057600080fd5b8401601f81018613610e8157600080fd5b803567ffffffffffffffff811115610e9857600080fd5b866020828401011115610eaa57600080fd5b939660209190910195509293505050565b60005b83811015610ed6578181015183820152602001610ebe565b50506000910152565b6020815260008251806020840152610efe816040850160208701610ebb565b601f01601f19169190910160400192915050565b600060208284031215610f2457600080fd5b610cca82610d07565b600060208284031215610f3f57600080fd5b5051919050565b600060208284031215610f5857600080fd5b81518015158114610cca57600080fd5b8183823760009101908152919050565b60008251610f8a818460208701610ebb565b919091019291505056fe608060405234801561001057600080fd5b5060405161173d38038061173d83398101604081905261002f91610120565b600080546001600160a01b0319908116331782556001600160a01b03958616808352600160208181526040808620805462ff00ff199081169091557fac33ff75c19e70fe83507db0d683fd3465c996598dc972688b7ace676c89077b80548716909517909455978916808652978520805490931682179092558352600290527fe90b7bceb6e7df5418fb78d8ee546e97c83a08bbccc01a0644d599ccd2a7c2e08054821690951790945560038054851693861693909317909255600480549093169316929092179055805460ff60a01b1916905561017f565b6001600160a01b038116811461011d57600080fd5b50565b6000806000806080858703121561013657600080fd5b845161014181610108565b602086015190945061015281610108565b604086015190935061016381610108565b606086015190925061017481610108565b939692955090935050565b6115af8061018e6000396000f3fe608060405234801561001057600080fd5b50600436106101425760003560e01c806383163fd0116100b8578063b9a0bbbf1161007c578063b9a0bbbf14610164578063bdd2c7641461016c578063d24c0ab21461016c578063da79cb1f14610164578063e248aa0414610174578063e2eb41ff1461023d57600080fd5b806383163fd014610174578063935e2ac71461020a5780639d11f6ee1461015c5780639d8a06af146101a6578063ac9650d81461021d57600080fd5b8063369ebd5d1161010a578063369ebd5d146101745780633951be871461017c57806342307bdc146101a65780635564a08e146101ae5780636879d4d3146101b657806372448e48146101c957600080fd5b806302bc13be146101475780630434fe0b1461015c5780630f743fbe1461016457806318bb22dc1461016c578063321639db1461015c575b600080fd5b61015a610155366004611180565b61029c565b005b61015a610684565b61015a61075d565b61015a610837565b61015a610910565b60005461019090600160a01b900460ff1681565b60405161019d91906111d2565b60405180910390f35b61015a6109e8565b61015a610a54565b61015a6101c43660046111e5565b610c3a565b6101f26101d736600461120e565b6002602052600090815260409020546001600160a01b031681565b6040516001600160a01b03909116815260200161019d565b61015a61021836600461122f565b610e2d565b61023061022b366004611250565b610f99565b60405161019d91906112eb565b61028a61024b3660046111e5565b6001602081905260009182526040909120805491810154600282015460039092015460ff80851694610100810482169462010000909104909116929186565b60405161019d9695949392919061136b565b60008054600160a01b900460ff1660038111156102bb576102bb6111ac565b10156103005760405162461bcd60e51b815260206004820152600f60248201526e494e434f52524543545f504841534560881b60448201526064015b60405180910390fd5b6003600054600160a01b900460ff166003811115610320576103206111ac565b1061035f5760405162461bcd60e51b815260206004820152600f60248201526e494e434f52524543545f504841534560881b60448201526064016102f7565b66038d7ea4c680008310156103b65760405162461bcd60e51b815260206004820152601b60248201527f494e53554646494349454e545f42455454494e475f414d4f554e54000000000060448201526064016102f7565b6103c081836113d3565b60641461040f5760405162461bcd60e51b815260206004820152601e60248201527f48505f414e445f4d505f53554d4d4154494f4e5f53484f554c445f313030000060448201526064016102f7565b336000908152600160208190526040808320815160c08101909252805491929091839160ff90911690811115610447576104476111ac565b6001811115610458576104586111ac565b81528154602090910190610100900460ff16600381111561047b5761047b6111ac565b600381111561048c5761048c6111ac565b8152815460209091019062010000900460ff1660038111156104b0576104b06111ac565b60038111156104c1576104c16111ac565b8152600182015460208201526002820154604082015260039091015460609091015290506104f56509184e72a000856113e6565b9350838160a00181815161050991906113d3565b90525060646105188386611408565b61052291906113e6565b8160600181815161053391906113d3565b9052506060810151610545908561141f565b8160800181815161055691906113d3565b905250336000908152600160208190526040909120825181548493839160ff1916908381811115610589576105896111ac565b021790555060208201518154829061ff0019166101008360038111156105b1576105b16111ac565b021790555060408201518154829062ff00001916620100008360038111156105db576105db6111ac565b0217905550606082015160018201556080820151600282015560a090910151600391820155546000546040516323b872dd60e01b81523360048201526001600160a01b039182166024820152604481018790529116906323b872dd906064016020604051808303816000875af1158015610659573d6000803e3d6000fd5b505050506040513d601f19601f8201168201806040525081019061067d9190611432565b5050505050565b60008052600260205260008051602061153a833981519152546001600160a01b03163314806106d457506001600052600260205260008051602061155a833981519152546001600160a01b031633145b6106f05760405162461bcd60e51b81526004016102f790611454565b600233600090815260016020526040902054610100900460ff16600381111561071b5761071b6111ac565b1461075b5760405162461bcd60e51b815260206004820152601060248201526f594f555f4152455f4e4f545f4d41474560801b60448201526064016102f7565b565b60008052600260205260008051602061153a833981519152546001600160a01b03163314806107ad57506001600052600260205260008051602061155a833981519152546001600160a01b031633145b6107c95760405162461bcd60e51b81526004016102f790611454565b600033600090815260016020526040902054610100900460ff1660038111156107f4576107f46111ac565b1461075b5760405162461bcd60e51b81526020600482015260136024820152722ca7aaafa0a922afa727aa2faba0a92924a7a960691b60448201526064016102f7565b60008052600260205260008051602061153a833981519152546001600160a01b031633148061088757506001600052600260205260008051602061155a833981519152546001600160a01b031633145b6108a35760405162461bcd60e51b81526004016102f790611454565b600133600090815260016020526040902054610100900460ff1660038111156108ce576108ce6111ac565b1461075b5760405162461bcd60e51b81526020600482015260126024820152712ca7aaafa0a922afa727aa2fa0a921a422a960711b60448201526064016102f7565b60008052600260205260008051602061153a833981519152546001600160a01b031633148061096057506001600052600260205260008051602061155a833981519152546001600160a01b031633145b61097c5760405162461bcd60e51b81526004016102f790611454565b600333600090815260016020526040902054610100900460ff1660038111156109a7576109a76111ac565b1461075b5760405162461bcd60e51b81526020600482015260116024820152701653d557d0549157d393d517d114955251607a1b60448201526064016102f7565b60008052600260205260008051602061153a833981519152546001600160a01b0316331480610a3857506001600052600260205260008051602061155a833981519152546001600160a01b031633145b61075b5760405162461bcd60e51b81526004016102f790611454565b60008052600260205260008051602061153a833981519152546001600160a01b0316331480610aa457506001600052600260205260008051602061155a833981519152546001600160a01b031633145b610ac05760405162461bcd60e51b81526004016102f790611454565b60008054600160a01b900460ff166003811115610adf57610adf6111ac565b14610b1e5760405162461bcd60e51b815260206004820152600f60248201526e4e4f545f52454144595f504148534560881b60448201526064016102f7565b3360009081526001602052604090206003015466038d7ea4c680001115610b775760405162461bcd60e51b815260206004820152600d60248201526c14d15517d05195115497d09155609a1b60448201526064016102f7565b336000908152600160208190526040808320805462ff000019166201000090811790915560008051602061153a833981519152546001600160a01b031684529220549091900460ff166003811115610bd157610bd16111ac565b148015610c20575060008051602061155a833981519152546001600160a01b031660009081526001602081905260409091205462010000900460ff166003811115610c1e57610c1e6111ac565b145b1561075b576000805460ff60a01b1916600160a01b179055565b60008052600260205260008051602061153a833981519152546001600160a01b0316331480610c8a57506001600052600260205260008051602061155a833981519152546001600160a01b031633145b610ca65760405162461bcd60e51b81526004016102f790611454565b6003600054600160a01b900460ff166003811115610cc657610cc66111ac565b10610d055760405162461bcd60e51b815260206004820152600f60248201526e494e434f52524543545f504148534560881b60448201526064016102f7565b60008052600260205260008051602061153a833981519152546001600160a01b03163303610e1e578060026000805b81526020808201929092526040908101600090812080546001600160a01b0319166001600160a01b0395861617905533815260019283905281812093851681522082548154919260ff90911691839160ff19909116908381811115610d9b57610d9b6111ac565b02179055508154815460ff610100928390041691839161ff00191690836003811115610dc957610dc96111ac565b02179055508154815460ff62010000928390041691839162ff0000191690836003811115610df957610df96111ac565b0217905550600182810154908201556002808301549082015560039182015491015550565b80600260006001610d34565b50565b60008052600260205260008051602061153a833981519152546001600160a01b0316331480610e7d57506001600052600260205260008051602061155a833981519152546001600160a01b031633145b610e995760405162461bcd60e51b81526004016102f790611454565b6001600054600160a01b900460ff166003811115610eb957610eb96111ac565b14610f065760405162461bcd60e51b815260206004820152601960248201527f4e4f545f434c4153535f53454c454354494f4e5f50414853450000000000000060448201526064016102f7565b6000816003811115610f1a57610f1a6111ac565b14610f83576001816003811115610f3357610f336111ac565b14610f83576002816003811115610f4c57610f4c6111ac565b14610f83576003816003811115610f6557610f656111ac565b14610f835760405163b4fa3fb360e01b815260040160405180910390fd5b506000805460ff60a01b1916600160a11b179055565b6040805160008152602081019091526060908267ffffffffffffffff811115610fc457610fc461147c565b604051908082528060200260200182016040528015610ff757816020015b6060815260200190600190039081610fe25790505b50915060005b83811015611079576110543086868481811061101b5761101b611492565b905060200281019061102d91906114a8565b85604051602001611040939291906114f6565b604051602081830303815290604052611082565b83828151811061106657611066611492565b6020908102919091010152600101610ffd565b50505b92915050565b6060600080846001600160a01b03168460405161109f919061151d565b600060405180830381855af49150503d80600081146110da576040519150601f19603f3d011682016040523d82523d6000602084013e6110df565b606091505b50915091506110ef8583836110f8565b95945050505050565b60608261110d5761110882611157565b611150565b815115801561112457506001600160a01b0384163b155b1561114d57604051639996b31560e01b81526001600160a01b03851660048201526024016102f7565b50805b9392505050565b8051156111675780518082602001fd5b604051630a12f52160e11b815260040160405180910390fd5b60008060006060848603121561119557600080fd5b505081359360208301359350604090920135919050565b634e487b7160e01b600052602160045260246000fd5b60048110610e2a57610e2a6111ac565b602081016111df836111c2565b91905290565b6000602082840312156111f757600080fd5b81356001600160a01b038116811461115057600080fd5b60006020828403121561122057600080fd5b81356002811061115057600080fd5b60006020828403121561124157600080fd5b81356004811061115057600080fd5b6000806020838503121561126357600080fd5b823567ffffffffffffffff81111561127a57600080fd5b8301601f8101851361128b57600080fd5b803567ffffffffffffffff8111156112a257600080fd5b8560208260051b84010111156112b757600080fd5b6020919091019590945092505050565b60005b838110156112e25781810151838201526020016112ca565b50506000910152565b6000602082016020835280845180835260408501915060408160051b86010192506020860160005b8281101561135f57603f198786030184528151805180875261133c8160208901602085016112c7565b601f01601f19169590950160209081019550938401939190910190600101611313565b50929695505050505050565b60c081016002881061137f5761137f6111ac565b87825261138b876111c2565b86602083015261139a866111c2565b8560408301528460608301528360808301528260a0830152979650505050505050565b634e487b7160e01b600052601160045260246000fd5b8082018082111561107c5761107c6113bd565b60008261140357634e487b7160e01b600052601260045260246000fd5b500490565b808202811582820484141761107c5761107c6113bd565b8181038181111561107c5761107c6113bd565b60006020828403121561144457600080fd5b8151801515811461115057600080fd5b6020808252600e908201526d24a72b20a624a22fa9a2a72222a960911b604082015260600190565b634e487b7160e01b600052604160045260246000fd5b634e487b7160e01b600052603260045260246000fd5b6000808335601e198436030181126114bf57600080fd5b83018035915067ffffffffffffffff8211156114da57600080fd5b6020019150368190038213156114ef57600080fd5b9250929050565b8284823760008382016000815283516115138183602088016112c7565b0195945050505050565b6000825161152f8184602087016112c7565b919091019291505056feac33ff75c19e70fe83507db0d683fd3465c996598dc972688b7ace676c89077be90b7bceb6e7df5418fb78d8ee546e97c83a08bbccc01a0644d599ccd2a7c2e0a26469706673582212205be59fddc1df8a0f209f0013643134188351d412f410bedd3e5ae7804809d4e264736f6c634300081a0033360894a13ba1a3210667c828492db98dca3e2076cc3735a920a3ca505d382bbccd5ed15c6e187e77e9aee88184c21f4f2182ab5827cb3b7e07fbedcd63f03300a26469706673582212204a910481ec0b81512fc44aee7b8d2e1d8dc5a454b53afcbbff85757425a3092064736f6c634300081a0033","linkReferences":{}},"methodIdentifiers":{"UPGRADE_INTERFACE_VERSION()":"ad3cb1cc","initialize(address,address)":"485cc955","invite(address,string)":"a1a17e0d","owner()":"8da5cb5b","pause()":"8456cb59","paused()":"5c975abb","proxiableUUID()":"52d1902d","renounceOwnership()":"715018a6","transferOwnership(address)":"f2fde38b","unpause()":"3f4ba83a","upgradeToAndCall(address,bytes)":"4f1ef286"},"id":30}