{"abi":[{"type":"constructor","inputs":[],"stateMutability":"nonpayable"},{"type":"function","name":"approve","inputs":[{"name":"to","type":"address","internalType":"address"},{"name":"tokenId","type":"uint256","internalType":"uint256"}],"outputs":[],"stateMutability":"nonpayable"},{"type":"function","name":"balanceOf","inputs":[{"name":"owner","type":"address","internalType":"address"}],"outputs":[{"name":"","type":"uint256","internalType":"uint256"}],"stateMutability":"view"},{"type":"function","name":"deleteInstance","inputs":[{"name":"instanceAddr","type":"address","internalType":"address"}],"outputs":[],"stateMutability":"nonpayable"},{"type":"function","name":"getApproved","inputs":[{"name":"tokenId","type":"uint256","internalType":"uint256"}],"outputs":[{"name":"","type":"address","internalType":"address"}],"stateMutability":"view"},{"type":"function","name":"isApprovedForAll","inputs":[{"name":"owner","type":"address","internalType":"address"},{"name":"operator","type":"address","internalType":"address"}],"outputs":[{"name":"","type":"bool","internalType":"bool"}],"stateMutability":"view"},{"type":"function","name":"mint","inputs":[{"name":"_to","type":"address","internalType":"address"}],"outputs":[{"name":"id","type":"uint256","internalType":"uint256"}],"stateMutability":"nonpayable"},{"type":"function","name":"name","inputs":[],"outputs":[{"name":"","type":"string","internalType":"string"}],"stateMutability":"view"},{"type":"function","name":"owner","inputs":[],"outputs":[{"name":"","type":"address","internalType":"address"}],"stateMutability":"view"},{"type":"function","name":"ownerOf","inputs":[{"name":"tokenId","type":"uint256","internalType":"uint256"}],"outputs":[{"name":"","type":"address","internalType":"address"}],"stateMutability":"view"},{"type":"function","name":"registerInstance","inputs":[{"name":"instanceAddr","type":"address","internalType":"address"}],"outputs":[],"stateMutability":"nonpayable"},{"type":"function","name":"registerProxy","inputs":[{"name":"proxyAddr","type":"address","internalType":"address"}],"outputs":[],"stateMutability":"nonpayable"},{"type":"function","name":"renounceOwnership","inputs":[],"outputs":[],"stateMutability":"nonpayable"},{"type":"function","name":"safeTransferFrom","inputs":[{"name":"from","type":"address","internalType":"address"},{"name":"to","type":"address","internalType":"address"},{"name":"tokenId","type":"uint256","internalType":"uint256"}],"outputs":[],"stateMutability":"nonpayable"},{"type":"function","name":"safeTransferFrom","inputs":[{"name":"from","type":"address","internalType":"address"},{"name":"to","type":"address","internalType":"address"},{"name":"tokenId","type":"uint256","internalType":"uint256"},{"name":"data","type":"bytes","internalType":"bytes"}],"outputs":[],"stateMutability":"nonpayable"},{"type":"function","name":"setApprovalForAll","inputs":[{"name":"operator","type":"address","internalType":"address"},{"name":"approved","type":"bool","internalType":"bool"}],"outputs":[],"stateMutability":"nonpayable"},{"type":"function","name":"supportsInterface","inputs":[{"name":"interfaceId","type":"bytes4","internalType":"bytes4"}],"outputs":[{"name":"","type":"bool","internalType":"bool"}],"stateMutability":"view"},{"type":"function","name":"symbol","inputs":[],"outputs":[{"name":"","type":"string","internalType":"string"}],"stateMutability":"view"},{"type":"function","name":"tokenURI","inputs":[{"name":"tokenId","type":"uint256","internalType":"uint256"}],"outputs":[{"name":"","type":"string","internalType":"string"}],"stateMutability":"view"},{"type":"function","name":"transferFrom","inputs":[{"name":"from","type":"address","internalType":"address"},{"name":"to","type":"address","internalType":"address"},{"name":"tokenId","type":"uint256","internalType":"uint256"}],"outputs":[],"stateMutability":"nonpayable"},{"type":"function","name":"transferOwnership","inputs":[{"name":"newOwner","type":"address","internalType":"address"}],"outputs":[],"stateMutability":"nonpayable"},{"type":"event","name":"Approval","inputs":[{"name":"owner","type":"address","indexed":true,"internalType":"address"},{"name":"approved","type":"address","indexed":true,"internalType":"address"},{"name":"tokenId","type":"uint256","indexed":true,"internalType":"uint256"}],"anonymous":false},{"type":"event","name":"ApprovalForAll","inputs":[{"name":"owner","type":"address","indexed":true,"internalType":"address"},{"name":"operator","type":"address","indexed":true,"internalType":"address"},{"name":"approved","type":"bool","indexed":false,"internalType":"bool"}],"anonymous":false},{"type":"event","name":"OwnershipTransferred","inputs":[{"name":"previousOwner","type":"address","indexed":true,"internalType":"address"},{"name":"newOwner","type":"address","indexed":true,"internalType":"address"}],"anonymous":false},{"type":"event","name":"Transfer","inputs":[{"name":"from","type":"address","indexed":true,"internalType":"address"},{"name":"to","type":"address","indexed":true,"internalType":"address"},{"name":"tokenId","type":"uint256","indexed":true,"internalType":"uint256"}],"anonymous":false},{"type":"error","name":"ERC721IncorrectOwner","inputs":[{"name":"sender","type":"address","internalType":"address"},{"name":"tokenId","type":"uint256","internalType":"uint256"},{"name":"owner","type":"address","internalType":"address"}]},{"type":"error","name":"ERC721InsufficientApproval","inputs":[{"name":"operator","type":"address","internalType":"address"},{"name":"tokenId","type":"uint256","internalType":"uint256"}]},{"type":"error","name":"ERC721InvalidApprover","inputs":[{"name":"approver","type":"address","internalType":"address"}]},{"type":"error","name":"ERC721InvalidOperator","inputs":[{"name":"operator","type":"address","internalType":"address"}]},{"type":"error","name":"ERC721InvalidOwner","inputs":[{"name":"owner","type":"address","internalType":"address"}]},{"type":"error","name":"ERC721InvalidReceiver","inputs":[{"name":"receiver","type":"address","internalType":"address"}]},{"type":"error","name":"ERC721InvalidSender","inputs":[{"name":"sender","type":"address","internalType":"address"}]},{"type":"error","name":"ERC721NonexistentToken","inputs":[{"name":"tokenId","type":"uint256","internalType":"uint256"}]},{"type":"error","name":"OwnableInvalidOwner","inputs":[{"name":"owner","type":"address","internalType":"address"}]},{"type":"error","name":"OwnableUnauthorizedAccount","inputs":[{"name":"account","type":"address","internalType":"address"}]}],"bytecode":{"object":"0x608060405234801561001057600080fd5b50336040518060400160405280601081526020016f135d5b1d1a48105d1d1858dac813919560821b8152506040518060400160405280600381526020016226a0a760e91b815250816000908161006691906101a4565b50600161007382826101a4565b5050506001600160a01b0381166100a457604051631e4fbdf760e01b81526000600482015260240160405180910390fd5b6100ad816100b3565b50610262565b600680546001600160a01b038381166001600160a01b0319831681179093556040519116919082907f8be0079c531659141344cd1fd0a4f28419497f9722a3daafe3b4186f6b6457e090600090a35050565b634e487b7160e01b600052604160045260246000fd5b600181811c9082168061012f57607f821691505b60208210810361014f57634e487b7160e01b600052602260045260246000fd5b50919050565b601f82111561019f57806000526020600020601f840160051c8101602085101561017c5750805b601f840160051c820191505b8181101561019c5760008155600101610188565b50505b505050565b81516001600160401b038111156101bd576101bd610105565b6101d1816101cb845461011b565b84610155565b6020601f82116001811461020557600083156101ed5750848201515b600019600385901b1c1916600184901b17845561019c565b600084815260208120601f198516915b828110156102355787850151825560209485019460019092019101610215565b50848210156102535786840151600019600387901b60f8161c191681555b50505050600190811b01905550565b61131d806102716000396000f3fe608060405234801561001057600080fd5b506004361061012c5760003560e01c8063715018a6116100ad578063b88d4fde11610071578063b88d4fde14610275578063c87b56dd14610288578063e101f0871461029b578063e985e9c5146102ae578063f2fde38b146102c157600080fd5b8063715018a61461022e578063834af153146102365780638da5cb5b1461024957806395d89b411461025a578063a22cb4651461026257600080fd5b806323b872dd116100f457806323b872dd146101c157806342842e0e146101d45780636352211e146101e75780636a627842146101fa57806370a082311461021b57600080fd5b806301ffc9a71461013157806306fdde0314610159578063081812fc1461016e578063095ea7b3146101995780631d0793c4146101ae575b600080fd5b61014461013f366004610f5d565b6102d4565b60405190151581526020015b60405180910390f35b610161610326565b6040516101509190610fca565b61018161017c366004610fdd565b6103b8565b6040516001600160a01b039091168152602001610150565b6101ac6101a7366004611012565b6103e1565b005b6101ac6101bc36600461103c565b6103f0565b6101ac6101cf366004611057565b610491565b6101ac6101e2366004611057565b61051c565b6101816101f5366004610fdd565b61053c565b61020d61020836600461103c565b610547565b604051908152602001610150565b61020d61022936600461103c565b61058b565b6101ac6105d3565b6101ac61024436600461103c565b6105e7565b6006546001600160a01b0316610181565b610161610685565b6101ac610270366004611094565b610694565b6101ac6102833660046110e6565b61069f565b610161610296366004610fdd565b6106b6565b6101ac6102a936600461103c565b61072b565b6101446102bc3660046111ca565b6107b5565b6101ac6102cf36600461103c565b6107e3565b60006001600160e01b031982166380ac58cd60e01b148061030557506001600160e01b03198216635b5e139f60e01b145b8061032057506301ffc9a760e01b6001600160e01b03198316145b92915050565b606060008054610335906111fd565b80601f0160208091040260200160405190810160405280929190818152602001828054610361906111fd565b80156103ae5780601f10610383576101008083540402835291602001916103ae565b820191906000526020600020905b81548152906001019060200180831161039157829003601f168201915b5050505050905090565b60006103c382610821565b506000828152600460205260409020546001600160a01b0316610320565b6103ec82823361085a565b5050565b3360009081526008602052604090205460ff1661040c57600080fd5b6001600160a01b03811660009081526007602052604090205460ff166104705760405162461bcd60e51b81526020600482015260146024820152734e4f4e5f4558495354494e475f4144445245535360601b60448201526064015b60405180910390fd5b6001600160a01b03166000908152600760205260409020805460ff19169055565b6001600160a01b0382166104bb57604051633250574960e11b815260006004820152602401610467565b60006104c8838333610867565b9050836001600160a01b0316816001600160a01b031614610516576040516364283d7b60e01b81526001600160a01b0380861660048301526024820184905282166044820152606401610467565b50505050565b6105378383836040518060200160405280600081525061069f565b505050565b600061032082610821565b3360009081526007602052604081205460ff1661056357600080fd5b506009546105718282610960565b6009805490600061058183611237565b9190505550919050565b60006001600160a01b0382166105b7576040516322718ad960e21b815260006004820152602401610467565b506001600160a01b031660009081526003602052604090205490565b6105db6109c5565b6105e560006109f2565b565b3360009081526008602052604090205460ff1661060357600080fd5b6001600160a01b03811660009081526007602052604090205460ff16156106615760405162461bcd60e51b81526020600482015260126024820152711053149150511657d49151d254d51154915160721b6044820152606401610467565b6001600160a01b03166000908152600760205260409020805460ff19166001179055565b606060018054610335906111fd565b6103ec338383610a44565b6106aa848484610491565b61051684848484610ae3565b60606106c182610821565b5060006106d960408051602081019091526000815290565b905060008151116106f95760405180602001604052806000815250610724565b8061070384610c0c565b60405160200161071492919061125e565b6040516020818303038152906040525b9392505050565b6107336109c5565b6001600160a01b03811660009081526008602052604090205460ff16156107915760405162461bcd60e51b81526020600482015260126024820152711053149150511657d49151d254d51154915160721b6044820152606401610467565b6001600160a01b03166000908152600860205260409020805460ff19166001179055565b6001600160a01b03918216600090815260056020908152604080832093909416825291909152205460ff1690565b6107eb6109c5565b6001600160a01b03811661081557604051631e4fbdf760e01b815260006004820152602401610467565b61081e816109f2565b50565b6000818152600260205260408120546001600160a01b03168061032057604051637e27328960e01b815260048101849052602401610467565b6105378383836001610c9f565b6000828152600260205260408120546001600160a01b039081169083161561089457610894818486610da5565b6001600160a01b038116156108d2576108b1600085600080610c9f565b6001600160a01b038116600090815260036020526040902080546000190190555b6001600160a01b03851615610901576001600160a01b0385166000908152600360205260409020805460010190555b60008481526002602052604080822080546001600160a01b0319166001600160a01b0389811691821790925591518793918516917fddf252ad1be2c89b69c2b068fc378daa952ba7f163c4a11628f55a4df523b3ef91a4949350505050565b6001600160a01b03821661098a57604051633250574960e11b815260006004820152602401610467565b600061099883836000610867565b90506001600160a01b03811615610537576040516339e3563760e11b815260006004820152602401610467565b6006546001600160a01b031633146105e55760405163118cdaa760e01b8152336004820152602401610467565b600680546001600160a01b038381166001600160a01b0319831681179093556040519116919082907f8be0079c531659141344cd1fd0a4f28419497f9722a3daafe3b4186f6b6457e090600090a35050565b6001600160a01b038216610a7657604051630b61174360e31b81526001600160a01b0383166004820152602401610467565b6001600160a01b03838116600081815260056020908152604080832094871680845294825291829020805460ff191686151590811790915591519182527f17307eab39ab6107e8899845ad3d59bd9653f200f220920489ca2b5937696c31910160405180910390a3505050565b6001600160a01b0383163b1561051657604051630a85bd0160e11b81526001600160a01b0384169063150b7a0290610b2590339088908790879060040161128d565b6020604051808303816000875af1925050508015610b60575060408051601f3d908101601f19168201909252610b5d918101906112ca565b60015b610bc9573d808015610b8e576040519150601f19603f3d011682016040523d82523d6000602084013e610b93565b606091505b508051600003610bc157604051633250574960e11b81526001600160a01b0385166004820152602401610467565b805181602001fd5b6001600160e01b03198116630a85bd0160e11b14610c0557604051633250574960e11b81526001600160a01b0385166004820152602401610467565b5050505050565b60606000610c1983610e09565b600101905060008167ffffffffffffffff811115610c3957610c396110d0565b6040519080825280601f01601f191660200182016040528015610c63576020820181803683370190505b5090508181016020015b600019016f181899199a1a9b1b9c1cb0b131b232b360811b600a86061a8153600a8504945084610c6d57509392505050565b8080610cb357506001600160a01b03821615155b15610d75576000610cc384610821565b90506001600160a01b03831615801590610cef5750826001600160a01b0316816001600160a01b031614155b8015610d025750610d0081846107b5565b155b15610d2b5760405163a9fbf51f60e01b81526001600160a01b0384166004820152602401610467565b8115610d735783856001600160a01b0316826001600160a01b03167f8c5be1e5ebec7d5bd14f71427d1e84f3dd0314c0f7b2291e5b200ac8c7c3b92560405160405180910390a45b505b5050600090815260046020526040902080546001600160a01b0319166001600160a01b0392909216919091179055565b610db0838383610ee1565b610537576001600160a01b038316610dde57604051637e27328960e01b815260048101829052602401610467565b60405163177e802f60e01b81526001600160a01b038316600482015260248101829052604401610467565b60008072184f03e93ff9f4daa797ed6e38ed64bf6a1f0160401b8310610e485772184f03e93ff9f4daa797ed6e38ed64bf6a1f0160401b830492506040015b6d04ee2d6d415b85acef81000000008310610e74576d04ee2d6d415b85acef8100000000830492506020015b662386f26fc100008310610e9257662386f26fc10000830492506010015b6305f5e1008310610eaa576305f5e100830492506008015b6127108310610ebe57612710830492506004015b60648310610ed0576064830492506002015b600a83106103205760010192915050565b60006001600160a01b03831615801590610f3f5750826001600160a01b0316846001600160a01b03161480610f1b5750610f1b84846107b5565b80610f3f57506000828152600460205260409020546001600160a01b038481169116145b949350505050565b6001600160e01b03198116811461081e57600080fd5b600060208284031215610f6f57600080fd5b813561072481610f47565b60005b83811015610f95578181015183820152602001610f7d565b50506000910152565b60008151808452610fb6816020860160208601610f7a565b601f01601f19169290920160200192915050565b6020815260006107246020830184610f9e565b600060208284031215610fef57600080fd5b5035919050565b80356001600160a01b038116811461100d57600080fd5b919050565b6000806040838503121561102557600080fd5b61102e83610ff6565b946020939093013593505050565b60006020828403121561104e57600080fd5b61072482610ff6565b60008060006060848603121561106c57600080fd5b61107584610ff6565b925061108360208501610ff6565b929592945050506040919091013590565b600080604083850312156110a757600080fd5b6110b083610ff6565b9150602083013580151581146110c557600080fd5b809150509250929050565b634e487b7160e01b600052604160045260246000fd5b600080600080608085870312156110fc57600080fd5b61110585610ff6565b935061111360208601610ff6565b925060408501359150606085013567ffffffffffffffff81111561113657600080fd5b8501601f8101871361114757600080fd5b803567ffffffffffffffff811115611161576111616110d0565b604051601f8201601f19908116603f0116810167ffffffffffffffff81118282101715611190576111906110d0565b6040528181528282016020018910156111a857600080fd5b8160208401602083013760006020838301015280935050505092959194509250565b600080604083850312156111dd57600080fd5b6111e683610ff6565b91506111f460208401610ff6565b90509250929050565b600181811c9082168061121157607f821691505b60208210810361123157634e487b7160e01b600052602260045260246000fd5b50919050565b60006001820161125757634e487b7160e01b600052601160045260246000fd5b5060010190565b60008351611270818460208801610f7a565b835190830190611284818360208801610f7a565b01949350505050565b6001600160a01b03858116825284166020820152604081018390526080606082018190526000906112c090830184610f9e565b9695505050505050565b6000602082840312156112dc57600080fd5b815161072481610f4756fea264697066735822122068d8f867293217a3d4e7b914cd68e45dd1f0fac5d2af7f9560df2e8a563bdb6964736f6c634300081a0033","linkReferences":{}},"methodIdentifiers":{"approve(address,uint256)":"095ea7b3","balanceOf(address)":"70a08231","deleteInstance(address)":"1d0793c4","getApproved(uint256)":"081812fc","isApprovedForAll(address,address)":"e985e9c5","mint(address)":"6a627842","name()":"06fdde03","owner()":"8da5cb5b","ownerOf(uint256)":"6352211e","registerInstance(address)":"834af153","registerProxy(address)":"e101f087","renounceOwnership()":"715018a6","safeTransferFrom(address,address,uint256)":"42842e0e","safeTransferFrom(address,address,uint256,bytes)":"b88d4fde","setApprovalForAll(address,bool)":"a22cb465","supportsInterface(bytes4)":"01ffc9a7","symbol()":"95d89b41","tokenURI(uint256)":"c87b56dd","transferFrom(address,address,uint256)":"23b872dd","transferOwnership(address)":"f2fde38b"},"id":26}